S01400002E2F44656275672F55707032332E733139D3
S315200000000248854600F0F6F9FEE7C04600C001200A
S3152000001080B500AF0C4B00221A600C4B29221A60C7
S315200000200B4B00221A60084B05221A60C046064B6D
S315200000301A6880235B021340F9D0034B00221A6012
S31520000040C046BD4680BDC04610E000E014E000E09A
S3152000005018E000E080B582B000AF786007E0FFF7D7
S31520000060D7FFFFF7D5FFFFF7D3FFFFF7D1FF7B6859
S315200000705A1E7A60002BF2D1C046BD4602B080BD22
S3152000008080B582B000AF786002E00120FFF7E2FF82
S315200000907B685A1E7A60002BF7D1C046BD4602B057
S315200000A080BD80B500AFC04600F0C1F803001A003D
S315200000B080231340802BF7D01420FFF7CBFF382066
S315200000C000F074F86420FFF7C5FFC04600F0AFF8D3
S315200000D003001A0080231340802BF7D01420FFF74B
S315200000E0B9FF0E2000F062F86420FFF7B3FFC04688
S315200000F000F09DF803001A0080231340802BF7D0D0
S315200001001420FFF7A7FF0E2000F050F86420FFF719
S31520000110A1FFC046BD4680BD80B584B000AF0200B9
S31520000120FB1D1A700C4A0F23FB1812781A70FA1D41
S315200001300F23FB1812781B781343DAB20F23FB1810
S3152000014004210A431A70044A0F23FB181B781370E4
S31520000150C046BD4604B080BD1410024080B584B0B0
S3152000016000AF0200FB1D1A700F4A0F23FB181278EE
S315200001701A70FB1D1B785BB2DB435BB20F22BA18E9
S31520000180127852B213405BB2042213435AB20F23A1
S31520000190FB181A70044A0F23FB181B781370C046ED
S315200001A0BD4604B080BDC0461410024080B582B062
S315200001B000AF0200FB1D1A700120FFF7CFFF0220BF
S315200001C0FFF7CCFFFB1D1B78180000F085F8C04612
S315200001D0BD4602B080BD80B582B000AF0200FB1DD7
S315200001E01A700120FFF798FF0220FFF7B7FFFB1DCB
S315200001F01B78180000F070F8C046BD4602B080BDDE
S3152000020080B500AFC04600F012F803001A00802324
S315200002101340802BF7D05020FFF71CFF0120FFF75B
S31520000220C5FFC820FFF72CFFC046BD4680BD90B550
S3152000023083B000AF114B114A12681204120C1A60D7
S315200002400120FFF78BFF0220FFF766FFFC1D00F061
S315200002505BF803002370094B084A12681204120C3B
S315200002601A60064B054A126805490A431A60FB1DA7
S315200002701B781800BD4603B090BDC0460010024052
S315200002800000555590B583B000AF114B104A126847
S315200002901204120C1A600120FFF73EFF0220FFF71E
S315200002A03BFFFC1D00F030F803002370084B084A82
S315200002B012681204120C1A60054B054A1268054989
S315200002C00A431A60FB1D1B781800BD4603B090BD7B
S315200002D0001002400000555580B582B000AF0200E4
S315200002E0FB1D1A704020FFF717FF064AFB1D1B78DF
S315200002F01370FFF78DFE4020FFF730FFC046BD4646
S3152000030002B080BD1510024080B582B000AF4020FB
S31520000310FFF702FFFFF77CFEFFF77AFE064AFB1D7A
S3152000032012781A704020FFF719FFFB1D1B78180062
S31520000330BD4602B080BDC0461110024080B582B0D5
S3152000034000AF0200FB1D1A70C046FFF770FF0300C6
S315200003501A0080231340802BF7D00820FFF77AFE5F
S31520000360FB1D1B781800FFF736FF3220FFF772FEC1
S31520000370C046BD4602B080BD80B584B000AF020045
S31520000380FB1D1A70BB1D0A1C1A700F23FB18FA1DC1
S315200003901278013A1A70BB1D1B78022B06D10F2347
S315200003A0FB180F22BA18127840321A700F23FB1846
S315200003B01B78802252421343DBB21800FFF7F6FE69
S315200003C0C046BD4604B080BD80B500AF064B18229E
S315200003D01A602B488047054B054A1A60FFF761FED5
S315200003E0C046BD4680BDC04630380240001002409F
S315200003F05555555590B58BB000AF1423FB181E4AA2
S3152000040013CA13C312881A803B1D1C4A13CA13C36E
S315200004101188198092789A70FFF7D6FFFFF7F0FEC1
S3152000042001210120FFF7A8FF1423FB187B6206E0B9
S315200004307B6A5A1C7A621B781800FFF77FFF7B6A5B
S315200004401B78002BF4D102210120FFF795FF3B1DDD
S315200004507B6206E07B6A5A1C7A621B781800FFF7DB
S315200004606DFF7B6A1B78002BF4D1FA235B00180002
S31520000470FFF706FED2E7C04684040020940400203D
S3152000048009020008416C66616E756D657269736B51
S3152000049020000000446973706C6179202D207465FA
S309200004A0737400004B
S70520000000DA
