S01400002E2F44656275672F55707032312E733139D5
S315200000000248854600F004F8FEE7C04600C00120FD
S3152000001080B582B000AF00F033F8FB1D00221A70C5
S3152000002000F078F80300180000F0A8F8F8E780B58B
S3152000003082B000AF78607B68042B19D87B689A0061
S315200000400D4BD3181B689F460C4B10221A700FE0DD
S315200000500A4B20221A700BE0084B40221A7007E048
S31520000060064B80221A7003E0044B00221A70C04609
S31520000070C046BD4602B080BDCC010020150C024012
S3152000008080B500AF094B18221A60094B094A1A603D
S31520000090094B094A1268AA210A431A60074B074AE4
S315200000A0128892B21A80C046BD4680BD30380240C2
S315200000B0000C0240555500550C0C0240040C024021
S315200000C080B582B000AF124AFB1D12781A70FB1D54
S315200000D01B780822134001D0042315E0FB1D1B7852
S315200000E00422134001D003230EE0FB1D1B780222BD
S315200000F0134001D0022307E0FB1D1B780122134089
S3152000010001D0012300E000231800BD4602B080BDC7
S31520000110110C024090B587B000AF3B00164A13CAB7
S3152000012013C312681A6001237B6119E07B691800EA
S31520000130FFF77DFFFFF7C4FF03003B613B69002B00
S315200001400BD00020FFF773FF7B69013B9A003B69C8
S31520000150013BD3183A00D35C09E07B6901337B610C
S315200001607B69042BE2DD0020FFF761FFFF231800E7
S31520000170BD4607B090BDC046E001002090B58BB0CB
S3152000018000AF0200FB1D1A700823FB180D4A13CA84
S3152000019013C313CA13C303CA03C3FB1D1B780F2B38
S315200001A003D9094B00221A7008E00749FB1D1A786B
S315200001B00823FB185200D35ADBB20B70C046BD464B
S315200001C00BB090BDF0010020140C02406800002006
S315200001D04800002050000020580000206000002029
S315200001E00102030A0405060B0708090C0E000F0D71
S315200001F03F0006005B004F0066006D007D00070093
S315200002007F006F0077007C0039005E007900710066
S70520000000DA
