S01500002E2F44656275672F6C61626234312E73313976
S315200000000248854600F004F8FEE7C04600C00120FD
S3152000001090B583B000AF00F029F8FB1D00221A70BE
S31520000020F02000F049F8104B180000F097F800F087
S31520000030ADF8031E0ED1FB1DFA1D127801321A707F
S31520000040FC1DFB1D1B78FF21180000F051F90B0049
S315200000502370ECE7C046FB1D1B78180000F02CF837
S31520000060C046BD4603B090BD80841E0080B500AF5B
S31520000070074B18221A6009488047064B064A1A6021
S3152000008000F02AF800F00CF8C046BD4680BDC046F8
S315200000903038024008ED00E000C0012009020008C7
S315200000A080B500AF024B034A1A60C046BD4680BDEC
S315200000B0000C02405555000080B582B000AF02000A
S315200000C0FB1D1A70034AFB1D1B781370C046BD46E4
S315200000D002B080BD140C024080B500AF024B034A2B
S315200000E01A60C046BD4680BD3CC0012021010020CB
S315200000F080B500AF074B00221A60074BA7221A6073
S31520000100064B00221A60034B07221A60C046BD46E2
S3152000011080BDC04610E000E014E000E018E000E0FA
S3152000012080B500AF0A4B00221A600A4B1B685A1E84
S31520000130084B1A60074B1B68002B02DDFFF7D8FF20
S3152000014002E0054B01221A60C046BD4680BDC0466E
S3152000015010E000E0080300200403002080B582B0F0
S3152000016000AF78607B68002B08D07A68054B1A6050
S31520000170054B00221A60FFF7BBFF00E0C046BD46D4
S3152000018002B080BD080300200403002080B500AF24
S31520000190024B1B681800BD4680BDC04604030020E4
S315200001A080B500AF0C4B00221A600C4B29221A6036
S315200001B00B4B00221A60084B05221A60C046064BDC
S315200001C01A6880235B021340F9D0034B00221A6081
S315200001D0C046BD4680BDC04610E000E014E000E009
S315200001E018E000E0002243088B4274D303098B42B7
S315200001F05FD3030A8B4244D3030B8B4228D3030CD1
S315200002008B420DD3FF22090212BA030C8B4202D372
S315200002101212090265D0030B8B4219D300E0090A9A
S31520000220C30B8B4201D3CB03C01A5241830B8B42A3
S3152000023001D38B03C01A5241430B8B4201D34B038C
S31520000240C01A5241030B8B4201D30B03C01A5241F1
S31520000250C30A8B4201D3CB02C01A5241830A8B4276
S3152000026001D38B02C01A5241430A8B4201D34B025F
S31520000270C01A5241030A8B4201D30B02C01A5241C3
S31520000280CDD2C3098B4201D3CB01C01A5241830977
S315200002908B4201D38B01C01A524143098B4201D3B1
S315200002A04B01C01A524103098B4201D30B01C01ADC
S315200002B05241C3088B4201D3CB00C01A5241830856
S315200002C08B4201D38B00C01A524143088B4201D383
S315200002D04B00C01A5241411A00D2014652411046E3
S315200002E07047FFE701B5002000F006F802BDC046C2
S315200002F00029F7D076E770477047C0460000000017
S31120000300000000000000000000000000CB
S70520000000DA
