S01400002E2F44656275672F55707032322E733139D4
S315200000000248854600F004F8FEE7C04600C00120FD
S3152000001080B500AF00F036F8084BFF221A70FA239D
S315200000205B00180000F00CF8044B00221A70FA232B
S315200000305B00180000F004F8EEE7C04614100240FA
S3152000004080B584B000AF786011E00023FB600AE041
S3152000005000F024F800F022F800F020F800F01EF856
S31520000060FB680133FB60FB68054A9342F0DD7B6841
S315200000705A1E7A60002BE8D1C046BD4604B080BD2A
S31520000080E703000080B500AF024B034A1A60C04662
S31520000090BD4680BD001002405555000080B500AF1A
S315200000A00C4B00221A600C4B29221A600B4B0022A3
S315200000B01A60084B05221A60C046064B1A68802330
S315200000C05B021340F9D0034B00221A60C046BD469E
S315200000D080BDC04610E000E014E000E018E000E03B
S315200000E080B582B000AF786007E0FFF7D7FFFFF753
S315200000F0D5FFFFF7D3FFFFF7D1FF7B685A1E7A6043
S31120000100002BF2D1C046BD4602B080BDE7
S70520000000DA
