S01400002E2F44656275672F4C616262332E733139C9
S315200000000248854600F004F8FEE7C04600C00120FD
S3152000001080B500AF00F06AF8C046BD4680BD80B509
S3152000002000AF064B18221A606048804700F047F957
S3152000003000F091FAC046BD4680BDC0463038024029
S3152000004090B58FB000AFFFF7EAFF1C23FB18164AC6
S3152000005013CA13C313CA13C312681A603B00134A88
S3152000006013CA13C313CA13C312681A6000F0F1FA35
S315200000701C23FB189B691C22BA18100098473B00CA
S315200000809B693A001000984700F04EFBFA235B006C
S31520000090180000F0CBFA00F0DCFA00F045FBC04671
S315200000A0BD460FB090BDC04688130020A413002083
S315200000B090B589B000AFFFF7B2FF3B000A4A13CADA
S315200000C013C313CA13C312681A603B00FB6100F006
S315200000D0C0FAFB699B69FA691000984700F024FB77
S315200000E0C82000F0A3FAF2E7C013002090B58BB029
S315200000F000AFFFF794FF00F09FFC3B1D294A13CA6F
S3152000010013C313CA13C312681A603B1D7B6200F027
S31520000110A0FA00F009FBFA239B00180000F086FAEB
S3152000012000F097FA7B6A9B697A6A10009847232326
S31520000130FC1800F0F5FC03002370282000F076FA66
S315200001402323FB181B78082B29D89A00164BD31883
S315200001501B689F467B6A1B69786A002202219847A2
S315200001601DE07B6A1B6902225142786A0022984769
S3152000017015E07B6A1B6902225242786A0021984761
S315200001800DE07B6A1B69786A02220021984706E007
S315200001907B6A1B69786A002200219847C04600F0D6
S315200001A0C3FABDE7DC130020F8130020090200087B
S315200001B080B584B000AF0200FB1D1A70124A0F23CF
S315200001C0FB1812781A700F23FB180F22BA18127810
S315200001D004218A431A70FB1D1B785BB204229343C9
S315200001E05AB20F23FB181B785BB213435AB20F2364
S315200001F0FB181A70044A0F23FB181B781370C0468D
S31520000200BD4604B080BDC0461410024080B584B0FF
S3152000021000AF0200FB1D1A70114A0F23FB1812783B
S315200002201A700F23FB180F22BA18127804218A435A
S315200002301A70FB1D1B785BB2DB435BB20F22BA1828
S31520000240127852B213405AB20F23FB181A70044A7E
S315200002500F23FB181B781370C046BD4604B080BD23
S315200002601410024080B582B000AF0200FB1D1A7048
S31520000270FB1D1B78082B0CD002DC002B05D01AE0C6
S31520000280102B0DD0182B12D015E01820FFF7BEFF2B
S3152000029011E00820FFF78CFF1020FFF7B7FF0AE0D8
S315200002A00820FFF7B3FF1020FFF782FF03E0182096
S315200002B0FFF77EFFC046C046BD4602B080BD80B572
S315200002C000AF4020FFF774FF0A2000F099F978204C
S315200002D0FFF79CFF1E2000F0A9F92020FFF768FFFA
S315200002E0642000F0A3F918213E2000F0F1F818212F
S315200002F03F2000F0EDF81821C02000F0E9F8182181
S31520000300402000F0E5F81821B82000F0E1F80020A0
S31520000310FFF7A8FFC046BD4680BD80B582B000AFBE
S315200003204020FFF773FF174B174A1A600120FFF78B
S315200003306DFF0220FFF73CFF00F040F900F03EF988
S315200003404020FFF735FF00F039F900F037F90F4B61
S315200003501B78DAB2FB1D7F218A431A704020FFF7F3
S3152000036055FF00F02BF900F029F9FB1D1B78002B17
S3152000037000D0E5E7C046034B054A1A60C046BD4695
S3152000038002B080BD001002405555000011100240F9
S315200003905555555580B584B000AF0200FB1D1A7027
S315200003A04020FFF733FF1E4B1E4A1A600320FFF73B
S315200003B0FFFEFB1D1B781800FFF754FF00F0FEF828
S315200003C000F0FCF84020FFF7F3FE00F0F7F800F00D
S315200003D0F5F8154A0F23FB1812781A704020FFF7FC
S315200003E015FF0F4B114A1A60FB1D1B78082213407C
S315200003F004D00820FFF736FFFFF78FFFFB1D1B7881
S315200004001022134004D01020FFF72CFFFFF785FFA2
S315200004100F23FB181B781800BD4604B080BDC046CC
S3152000042000100240555500001110024055555555F3
S3152000043080B582B000AF0200FB1D1A70FB1D1B7831
S315200004401800FFF7A7FFFB1D1B781800FFF7A2FF78
S3152000045003001800BD4602B080BD80B582B000AF53
S315200004600200FB1D1A70BB1D0A1C1A70174AFB1DC1
S315200004701B781370BB1D1B781800FFF7F3FE00F0E6
S315200004809DF800F09BF84020FFF792FE00F096F8CA
S3152000049000F094F84020FFF7B9FEBB1D1B78082218
S315200004A0134004D00820FFF7DDFEFFF736FFBB1D03
S315200004B01B781022134004D01020FFF7D3FEFFF73D
S315200004C02CFFC046BD4602B080BDC0461510024076
S315200004D080B582B000AF0200FB1D1A70BB1D0A1C3E
S315200004E01A704020FFF792FEBB1D1B781800FFF7FD
S315200004F0B9FE0320FFF78AFEBB1D1A78FB1D1B7869
S3152000050011001800FFF7A9FFC046BD4602B080BD06
S3152000051080B582B000AF0200FB1D1A70BB1D0A1CFD
S315200005201A704020FFF772FEBB1D1B781800FFF7DC
S3152000053099FE0120FFF73CFE0220FFF767FEBB1D58
S315200005401A78FB1D1B7811001800FFF786FFC0469E
S31520000550BD4602B080BD80B582B000AFBB1D002273
S315200005601A7023E0BB1D1B78482252421343DBB28C
S3152000057018211800FFF7ACFF18214020FFF7A8FF2D
S31520000580FB1D00221A7008E018210020FFF7C0FF8B
S31520000590FB1D1A78FB1D01321A70FB1D1B783F2BA1
S315200005A0F2D9BB1D1A78BB1D01321A70BB1D1B78F0
S315200005B0072BD7D9C046BD4602B080BD80B500AF57
S315200005C00C4B00221A600C4B29221A600B4B00227E
S315200005D01A60084B05221A60C046064B1A6880230B
S315200005E05B021340F9D0034B00221A60C046BD4679
S315200005F080BDC04610E000E014E000E018E000E016
S3152000060080B582B000AF786007E0FFF7D7FFFFF72D
S31520000610D5FFFFF7D3FFFFF7D1FF7B685A1E7A601D
S31520000620002BF2D1C046BD4602B080BD80B582B057
S3152000063000AF786004E0FA239B001800FFF7E0FF84
S315200006407B685A1E7A60002BF5D1C046BD4602B0A3
S3152000065080BD80B582B000AF00237B6007E0084AEA
S315200006607B68D31800221A707B6801337B607B6815
S31520000670044A9342F3DDC046BD4602B080BDC04663
S31520000680880B0020FF03000080B584B000AF78609F
S3152000069039600023FB607B68802B3DDC7B68002B68
S315200006A03ADD3B68402B37DC3B68002B34DD3B686A
S315200006B0013B1B4A134004D5013B082252421343F7
S315200006C001331A00012393401A000B23FB181A70DA
S315200006D07B68402B05DD7B68413B7B6080239B004C
S315200006E0FB603B68013B002B00DA0733DB109A01E5
S315200006F07B68D318FA68D318FB600A4AFB68D318BC
S315200007001A780B23FB181B781343D9B2054AFB68CA
S31520000710D3180A1C1A7000E0C046BD4604B080BD3E
S3152000072007000080880B002080B584B000AF00232E
S31520000730BB600D23FB1800221A7052E00D23FB1814
S315200007401B78002B01D1082200E01022FB1D1A7015
S315200007500E23FB1800221A7037E00E23FB181B7895
S31520000760482252421343DAB2FB1D1B7819001000AF
S31520000770FFF7AEFEFB1D1B7819004020FFF7A8FEF1
S315200007800F23FB1800221A7013E01A4ABB68D318ED
S315200007901A78FB1D1B7819001000FFF7B9FE0F23EE
S315200007A0FB181A780F23FB1801321A70BB68013325
S315200007B0BB600F23FB181B783F2BE6D90E23FB18B3
S315200007C01A780E23FB1801321A700E23FB181B7899
S315200007D0072BC2D90D23FB181A780D23FB180132DB
S315200007E01A700D23FB181B78012BA7D9C046BD46CE
S315200007F004B080BD880B002080B582B000AF786041
S315200008007B681B681800BD4602B080BD80B582B0EB
S3152000081000AF78607B681B791800BD4602B080BDAA
S3152000082080B588B000AF78607B689B687B617B6809
S31520000830DB683B617B681B68FB607B681B79002B50
S3152000084002D0012B11D021E07B69FB6108E03A69D7
S31520000850FB6911001800FFF717FFFB690133FB61E5
S31520000860FA69FB689A42F2DB10E03B69BB6108E05B
S31520000870BA697B6911001800FFF706FFBB690133CF
S31520000880BB61BA69FB689A42F2DBC046C046BD46E8
S3152000089008B080BD80B584B000AFF8607A603B6058
S315200008A00B23FB180A1C1A7000231800BD4604B03F
S315200008B080BD000080B584B000AFF860B9607A6072
S315200008C0FB68BA689A60FB687A68DA60C046BD46FB
S315200008D004B080BD80B58CB000AF78607B681B68A3
S315200008E0FB617B685B68BB6180237B6140233B6146
S315200008F0294BFB607B690722134006D17B69002BBD
S3152000090000DA0733DB103B6202E07B6901333B628E
S315200009100023FB6238E00023BB622EE0FB6A3A6AC2
S315200009205A43BB6AD3181A00FB689A180B23FB1884
S3152000093012781A7000237B6219E00B23FB181A78B1
S315200009407B6A1A411300012213400DD0BB6ADA00DC
S315200009507B6AD218FB69D318581CFA6ABB69D3186C
S3152000096001331900FFF790FE7B6A01337B627B6AB5
S31520000970072BE2DDBB6A0133BB62BA6A3B6A9A4245
S31520000980CCDBFB6A0133FB62FA6A3B699A42C2DB23
S31520000990C046BD460CB080BD880F002080B582B011
S315200009A000AF78607B681A687B689B68D2187B6882
S315200009B01A607B685A687B68DB68D2187B685A6045
S315200009C07B681B688033802B07DD7B6800221A60DA
S315200009D07B689B685A427B689A607B685B68403379
S315200009E0402B07DD7B6800225A607B68DB685A4211
S315200009F07B68DA607B681B68002B07DC7B6801223A
S31520000A001A607B689B685A427B689A607B685B6841
S31520000A10002B07DC7B6801225A607B68DB685A4220
S31520000A207B68DA607B685B697A6810009847C04605
S31520000A30BD4602B080BDC04680B500AF094B182226
S31520000A401A60094B094A1A60094B094A1268AA21F9
S31520000A500A431A60074B074A128892B21A80C04688
S31520000A60BD4680BD30380240000C02405555005529
S31520000A700C0C0240040C024080B582B000AF7860B6
S31520000A807B68042B19D87B689A000E4BD3181B68F9
S31520000A909F460D4B10221A700FE00B4B20221A7026
S31520000AA00BE0094B40221A7007E0074B80221A7090
S31520000AB003E0054B00221A70C046C046BD4602B070
S31520000AC080BDC0461C140020150C024080B582B0A3
S31520000AD000AF124AFB1D12781A70FB1D1B780822E4
S31520000AE0134001D0042315E0FB1D1B78042213407C
S31520000AF001D003230EE0FB1D1B780222134001D0F8
S31520000B00022307E0FB1D1B780122134001D001239D
S31520000B1000E000231800BD4602B080BD110C024043
S31520000B2090B587B000AF3B00164A13CA13C31268AC
S31520000B301A6001237B6119E07B691800FFF79CFF8F
S31520000B40FFF7C4FF03003B613B69002B0BD000205D
S31520000B50FFF792FF7B69013B9A003B69013BD31863
S31520000B603A00D35C09E07B6901337B617B69042B06
S31520000B70E2DD0020FFF780FFFF231800BD4607B007
S31520000B8090BDC04630140020000000000000000088
S31520000B90000000000000000000000000000000002F
S31520000BA0000000000000000000000000000000001F
S31520000BB0000000000000000000000000000000000F
S31520000BC000000000000000000000000000000000FF
S31520000FD000000000000010000000000000000000DB
S31520000FE000000000000030000000000000000000AB
S31520000FF000000000000020000000000000000000AB
S31520001000000000000000200000000000000000009A
S315200010100000000000001800000000000000000092
S315200010200000000000000600000000000000000094
S315200010300000000040000100000000000000000049
S3152000104000000000C0001E0000000000000000009C
S3152000105000000040C000300000000000000000003A
S315200010600000008080012000000000000000000039
S315200010700000000083432000000000001000000054
S315200010800000000201C31C00000000003000000028
S315200010900000800100C207000000000020000000C0
S315200010A000008000007D00000000000040000000DD
S315200010B00000400000010001000000004000000088
S315200010C000004000800000000000000040000000FA
S315200010D000004000600000000000000080000000CA
S315200010E00000400018000100000000008000000001
S315200010F00000408007000000000000008000000083
S31520001100000080FF000000000000000080000000BA
S315200011100000000000000000000000008000000029
S3152000112000000000000000000000000F0001000089
S31520001130000C0000000000000000C00100010000BB
S315200011400007000000000000000040002001000011
S31520001150C002000000000000000000002001000086
S315200011603001000000000000000000002002000006
S315200011708C000000000000000000001E200200007D
S31520001180830000000000000000000027200200C0AD
S3152000119000000000000000000000004110020030A6
S315200011A00000000000000000000080C01004000CB9
S315200011B000000000000000000000808010040003F2
S315200011C00000000000000000000080801004C00025
S315200011D000000000000000000000804008043000ED
S315200011E000000000000000000000804008080F00FA
S315200011F000000000000000000000004108E8010097
S315200012000000E000000000000000003E0830000062
S315200012100000900000000000000000000400000014
S31520001220000008010000000000000000040000008B
S3152000123000000C1A00000000000000000200000060
S315200012400000042A00000000000000000200000048
S3152000125000000C2600000000000000000000000036
S31520001260000008220000000000000000000000002E
S31520001270000008230000000000000000000000001D
S315200012800000102100000000000000000000000007
S3152000129000002020000000000000000000000000E8
S315200012A000004020000000000000000000000000B8
S315200012B00000C03000000000000000000000000018
S315200012C00000801000000000000000000000000068
S315200012D000000011000000000000000000000000D7
S315200012E00000000A000000000000000000000000CE
S315200012F00000000C000000000000000000000000BC
S3152000130000000000000000000000000000000000B7
S3152000131000000000000000000000000000000000A7
S315200013200000000000000000000000000000000097
S315200013300000000000000000000000000000000087
S315200013400000000000000000000000000000000077
S315200013500000000000000000000000000000000067
S315200013600000000000000000000000000000000057
S315200013700000000000000000000000000000000047
S3152000138000000000000000004000000001000000F6
S315200013900500000001000000F90700200D080020CC
S315200013A0210800208000000000000000010000004D
S315200013B005000000F90700200D0800202108002064
S315200013C02E00000020000000F1FFFFFF0F000000AC
S315200013D0B5080020D50800209D0900200100000046
S315200013E0010000000000000000000000B5080020F9
S315200013F0D50800209D0900209E0100209E01002086
S31520001400720100209E010020620100209001002030
S31520001410540100209E01002082010020B20A0020F3
S31520001420920A00209A0A0020A20A0020AA0A002076
S315200014300102030A0405060B0708090C0E000F0D0E
S70520000000DA
