S01500002E2F44656275672F6C61626234342E73313973
S315200000000248854600F022F8FEE7C04600C00120DF
S3152000001080B500AF094B18221A60094B084A1268AE
S315200000208021C9010A431A60064B074A1A6000F06C
S315200000301DF800F083F8C046BD4680BD303802402A
S315200000404438024008ED00E000C0012080B500AF32
S31520000050FFF7DEFF0F2000F015F8034B1B68DBB21D
S31520000060180000F00FF8F8E72002002080B500AF56
S31520000070024B034A1A60C046BD4680BD000C0240B2
S315200000805555000080B582B000AF0200FB1D1A70E6
S31520000090034AFB1D1B781370C046BD4602B080BDC7
S315200000A0140C024080B500AF214B1B68042213407C
S315200000B010D01F4B1E4A126804210A431A601D4B9A
S315200000C01B68DA431B4B1A601B4B40221A701A4BD3
S315200000D000221A70164B1B68022213400ED0144BB6
S315200000E0134A126802210A431A60124B00221A6030
S315200000F0114B20221A70104B00221A700C4B1B68D1
S315200001000122134010D00A4B094A126801210A43E2
S315200001101A60084B1B685A1C064B1A60064B1022A5
S315200001201A70054B00221A70C046BD4680BDC046D7
S31520000130143C0140200200201410024080B500AF7C
S315200001402E4BAA22D2011A602D4B00221A602C4B6C
S315200001502B4A12688021C9000A431A60294B294A72
S31520000160126804210A431A60274B274A1268042181
S315200001700A431A60254B264A1A60264B254A1268DE
S31520000180802149000A431A601D4B1D4A12684021EE
S315200001900A431A601B4B1B4A126802210A431A6043
S315200001A0194B194A126802210A431A601A4B184A37
S315200001B01A60184B174A126880210A431A60104B9E
S315200001C00F4A126804210A431A600E4B0D4A126820
S315200001D001210A431A600C4B0B4A126801210A437B
S315200001E01A600E4B0A4A1A600A4B0A4A12684021C4
S315200001F00A431A60C046BD4680BDC0460010024074
S3152000020008380140003C0140083C014060C0012004
S31520000210A500002000E100E05CC0012058C00120BC
S3092000022000000000B4
S70520000000DA
