S01700002E2F44656275672F47616D65323034382E73313922
S315200000000248854600F004F8FEE7C04600C00120FD
S3152000001090B583B000AF00F07FF8642000F0B6FA08
S3152000002001F004F800F02EFB00F0C1FAFC1D00F0F0
S3152000003005FC03002370282000F0A8FAFB1D1B787E
S31520000040042B0CD002DC022B0DD014E0062B02D0A0
S31520000050082B0CD00FE0032000F0A4FF0BE00420B7
S3152000006000F0A0FF07E0012000F09CFF03E0022043
S3152000007000F098FFC04600F02FFF031E09D0012B89
S3152000008004D0013306D100F035F81AE000F020F84C
S3152000009017E0C04601F06AF90300180001F080FB62
S315200000A001F054F9031EBFD0074B180001F036FBB0
S315200000B000F0BCFF00F0E6FA044B180001F02EFB1E
S315200000C0B2E7BD4603B090BD0823002010230020D0
S315200000D080B500AF064B180001F020FB01F046F971
S315200000E00300180001F05CFBC046BD4680BDC0463B
S315200000F01823002080B500AF064B180001F00EFB38
S3152000010000F055FA01F0C0F800F0BCFAC046BD4632
S3152000011080BDC0462423002080B500AF00F0A5F89E
S3152000012000F0EFF900F016FB00F041FA00F058FF5E
S3152000013001F082F900F008F80300180001F06CF9CC
S31520000140C046BD4680BDC04680B500AF024B1B8869
S315200001501800BD4680BDC0462C1B002080B584B04B
S3152000016000AF0200FB1D1A70124A0F23FB181278EB
S315200001701A700F23FB180F22BA18127804218A430B
S315200001801A70FB1D1B785BB2042293435AB20F23CD
S31520000190FB181B785BB213435AB20F23FB181A7055
S315200001A0044A0F23FB181B781370C046BD4604B0C3
S315200001B080BDC0461410024080B584B000AF020056
S315200001C0FB1D1A70114A0F23FB1812781A700F2381
S315200001D0FB180F22BA18127804218A431A70FB1DC5
S315200001E01B785BB2DB435BB20F22BA18127852B28D
S315200001F013405AB20F23FB181A70044A0F23FB1818
S315200002001B781370C046BD4604B080BD1410024052
S3152000021080B582B000AF0200FB1D1A70FB1D1B7853
S31520000220082B0CD002DC002B05D01AE0102B0DD0A9
S31520000230182B12D015E01820FFF7BEFF11E008207A
S31520000240FFF78CFF1020FFF7B7FF0AE00820FFF723
S31520000250B3FF1020FFF782FF03E01820FFF77EFF91
S31520000260C046C046BD4602B080BD80B500AF402026
S31520000270FFF774FF0A2000F073F97820FFF79CFF40
S315200002801E2000F083F92020FFF768FF642000F08D
S315200002907DF918213E2000F0F1F818213F2000F0CA
S315200002A0EDF81821C02000F0E9F81821402000F0D0
S315200002B0E5F81821B82000F0E1F80020FFF7A8FFA4
S315200002C0C046BD4680BD80B582B000AF4020FFF756
S315200002D073FF174B174A1A600120FFF76DFF0220A4
S315200002E0FFF73CFF00F012F900F010F94020FFF76D
S315200002F035FF00F00BF900F009F90F4B1B78DAB245
S31520000300FB1D7F218A431A704020FFF755FF00F01E
S31520000310FDF800F0FBF8FB1D1B78002B00D0E5E76D
S31520000320C046034B054A1A60C046BD4602B080BD92
S3152000033000100240555500001110024055555555E4
S3152000034080B584B000AF0200FB1D1A704020FFF775
S3152000035033FF1E4B1E4A1A600320FFF7FFFEFB1DCC
S315200003601B781800FFF754FF00F0D0F800F0CEF805
S315200003704020FFF7F3FE00F0C9F800F0C7F8154A51
S315200003800F23FB1812781A704020FFF715FF0F4B2A
S31520000390114A1A60FB1D1B780822134004D008203E
S315200003A0FFF736FFFFF78FFFFB1D1B781022134048
S315200003B004D01020FFF72CFFFFF785FF0F23FB1833
S315200003C01B781800BD4604B080BDC0460010024010
S315200003D055550000111002405555555580B582B02F
S315200003E000AF0200FB1D1A70FB1D1B781800FFF7DB
S315200003F0A7FFFB1D1B781800FFF7A2FF03001800BC
S31520000400BD4602B080BD80B582B000AF0200FB1DA4
S315200004101A70BB1D0A1C1A70174AFB1D1B78137015
S31520000420BB1D1B781800FFF7F3FE00F06FF800F0F5
S315200004306DF84020FFF792FE00F068F800F066F8AD
S315200004404020FFF7B9FEBB1D1B780822134004D0BD
S315200004500820FFF7DDFEFFF736FFBB1D1B781022B5
S31520000460134004D01020FFF7D3FEFFF72CFFC04621
S31520000470BD4602B080BDC0461510024080B582B090
S3152000048000AF0200FB1D1A70BB1D0A1C1A7040200B
S31520000490FFF792FEBB1D1B781800FFF7B9FE03205D
S315200004A0FFF78AFEBB1D1A78FB1D1B78110018006A
S315200004B0FFF7A9FFC046BD4602B080BD80B582B019
S315200004C000AF0200FB1D1A70BB1D0A1C1A704020CB
S315200004D0FFF772FEBB1D1B781800FFF799FE01205F
S315200004E0FFF73CFE0220FFF767FEBB1D1A78FB1DB7
S315200004F01B7811001800FFF786FFC046BD4602B0E4
S3152000050080BD80B500AFC046BD4680BD80B500AF7A
S315200005100F4B00221A600F4B29221A600E4B002225
S315200005201A600B4B05221A6005E00C4B1B88013321
S315200005309AB20A4B1A80064B1A6880235B02134034
S31520000540F3D0034B00221A60C046BD4680BDC0468C
S3152000055010E000E014E000E018E000E02C1B002092
S3152000056080B582B000AF786007E0FFF7CFFFFFF7D6
S31520000570CDFFFFF7CBFFFFF7C9FF7B685A1E7A60D6
S31520000580002BF2D1C046BD4602B080BD80B582B0F8
S3152000059000AF786002E00120FFF7E2FF7B685A1E79
S315200005A07A60002BF7D1C046BD4602B080BD80B52B
S315200005B082B000AF00237B6007E0084A7B68D3182F
S315200005C000221A707B6801337B607B68044A934261
S315200005D0F3DDC046BD4602B080BDC046881B002064
S315200005E0FF03000080B584B000AF78603960002337
S315200005F0FB607B68802B3DDC7B68002B3ADD3B680B
S31520000600402B37DC3B68002B34DD3B68013B1B4A23
S31520000610134004D5013B08225242134301331A00EA
S31520000620012393401A000B23FB181A707B683F2B7B
S3152000063005DD7B68403B7B6080239B00FB603B683D
S31520000640013B002B00DA0733DB109A017B68D318B5
S31520000650FA68D318FB600A4AFB68D3181A780B236A
S31520000660FB181B781343D9B2054AFB68D3180A1C1A
S315200006701A7000E0C046BD4604B080BD0700008069
S31520000680881B002080B584B000AF0023BB600D23FB
S31520000690FB1800221A7052E00D23FB181B78002B42
S315200006A001D1082200E01022FB1D1A700E23FB1830
S315200006B000221A7037E00E23FB181B78482252427C
S315200006C01343DAB2FB1D1B7819001000FFF7D6FE84
S315200006D0FB1D1B7819004020FFF7D0FE0F23FB18C7
S315200006E000221A7013E01A4ABB68D3181A78FB1D29
S315200006F01B7819001000FFF7E1FE0F23FB181A786C
S315200007000F23FB1801321A70BB680133BB600F231D
S31520000710FB181B783F2BE6D90E23FB181A780E23DD
S31520000720FB1801321A700E23FB181B78072BC2D92F
S315200007300D23FB181A780D23FB1801321A700D238E
S31520000740FB181B78012BA7D9C046BD4604B080BD37
S31520000750881B002080B500AF094B18221A60094B70
S31520000760094A1A60094B094A1268AA210A431A60E3
S31520000770074B074A128892B21A80C046BD4680BDF2
S3152000078030380240000C0240555500550C0C0240F2
S31520000790040C024080B582B000AF78607B68042BE1
S315200007A019D87B689A000E4BD3181B689F460D4BB1
S315200007B010221A700FE00B4B20221A700BE0094B07
S315200007C040221A7007E0074B80221A7003E0054B7F
S315200007D000221A70C046C046BD4602B080BDC04643
S315200007E030230020150C024080B582B000AF124A9B
S315200007F0FB1D12781A70FB1D1B780822134001D0AE
S31520000800042315E0FB1D1B780422134001D003238B
S315200008100EE0FB1D1B780222134001D0022307E0C5
S31520000820FB1D1B780122134001D0012300E0002389
S315200008301800BD4602B080BD110C024090B587B0AD
S3152000084000AF3B00164A13CA13C312681A6001236D
S315200008507B6119E07B691800FFF79CFFFFF7C4FF57
S3152000086003003B613B69002B0BD00020FFF792FF72
S315200008707B69013B9A003B69013BD3183A00D35C64
S3152000088009E07B6901337B617B69042BE2DD002073
S31520000890FFF780FFFF231800BD4607B090BDC04676
S315200008A04423002080B58EB000AF78607B68022B91
S315200008B000D19FE003DC012B00D1E6E030E1032BE1
S315200008C04DD0042B00D02BE100237B6343E0012392
S315200008D07B6300233B633BE00023FB6232E0924BC9
S315200008E03A6B9100FA6A8A189200D358002B26D1C7
S315200008F03B6B5A1C8C4B9100FA6A8A189200D3588B
S31520000900002B1CD03B6B5A1C874B9100FA6A8A1825
S315200009109200D158844B3A6B9000FA6A8218920062
S31520000920D1503B6B5A1C00237B637F4B9100FA6AA4
S315200009308A189200796BD1507B4B01221A64FB6A8C
S315200009400133FB62FB6A032BC9DD3B6B01333B633F
S315200009503B6B022BC0DD7B6B002BB8D0E0E0002385
S31520000960BB6243E00123BB6203237B623BE000239F
S315200009703B6232E06C4B7A6A91003A6A8A1892009E
S31520000980D358002B26D17B6A5A1E674B91003A6AB0
S315200009908A189200D358002B1CD07B6A5A1E624BB1
S315200009A091003A6A8A189200D1585F4B7A6A900071
S315200009B03A6A82189200D1507B6A5A1E0023BB6283
S315200009C0594B91003A6A8A189200B96AD150564B0F
S315200009D001221A643B6A01333B623B6A032BC9DD61
S315200009E07B6A013B7B627B6A002BC0DCBB6A002BE7
S315200009F0B8D095E00023FB6143E00123FB6103238C
S31520000A00BB613BE000237B6132E0474B7A69910072
S31520000A10BA698A189200D358002B26D1BB695A1E70
S31520000A20414B796989008A189200D358002B1CD033
S31520000A30BB695A1E3C4B796989008A189200D158A5
S31520000A40394B7A699000BA6982189200D150BB69F5
S31520000A505A1E0023FB61344B796989008A1892005B
S31520000A60F969D150304B01221A647B6901337B61CD
S31520000A707B69032BC9DDBB69013BBB61BB69002BCD
S31520000A80C0DCFB69002BB8D04AE000233B6143E081
S31520000A9001233B610023FB603BE00023BB6032E087
S31520000AA0214BBA689100FA688A189200D358002B15
S31520000AB026D1FB685A1C1C4BB96889008A189200FB
S31520000AC0D358002B1CD0FB685A1C174BB9688900D9
S31520000AD08A189200D158144BBA689000FA68821886
S31520000AE09200D150FB685A1C00233B610E4BB9681B
S31520000AF089008A1892003969D1500B4B01221A6459
S31520000B00BB680133BB60BB68032BC9DDFB680133BF
S31520000B10FB60FB68022BC0DD3B69002BB8D0C046CA
S31520000B20C046BD460EB080BD301B002080B58AB0C1
S31520000B3000AF7860AE4B00229A647B68022B00D10E
S31520000B40E3E003DC012B00D14CE1BCE1032B6FD0A9
S31520000B50042B00D0B7E100237B6265E000233B62D3
S31520000B605CE0A34B7A6A91003A6A8A189200D358BD
S31520000B70002B50D09E4B7A6A91003A6A8A189200CE
S31520000B80D2587B6A591C9A4B8800396A41188900C9
S31520000B90CB589A423FD1964B01221A64944B1B6C38
S31520000BA0934A796A8800396A411889008A58D11887
S31520000BB08F4B7A6A90003A6A82189200D1508C4BF9
S31520000BC0DB6C5A1E8A4BDA647B6A5A1C884B91006E
S31520000BD03A6A8A1892000021D150854B9A6C844B30
S31520000BE0796A8800396A41188900C958814B890079
S31520000BF0CB58D2187E4B9A647D4B5A6C7C4B796AC3
S31520000C008800396A41188900C9587A4B8900CB581F
S31520000C10D218774B5A643B6A01333B623B6A032BFB
S31520000C209FDD7B6A01337B627B6A022B96DD4AE17C
S31520000C300323FB6165E00023BB615CE06C4BFA6932
S31520000C409100BA698A189200D358002B50D0684B6D
S31520000C50FA699100BA698A189200D258FB69591E1E
S31520000C60634B8800B96941188900CB589A423FD115
S31520000C705F4B01221A645E4B1B6C5D4AF969880042
S31520000C80B969411889008A58D118594BFA699000D8
S31520000C90BA6982189200D150554BDB6C5A1E544BC0
S31520000CA0DA64FB695A1E524B9100BA698A1892007F
S31520000CB00021D1504E4B9A6C4D4BF9698800B96989
S31520000CC041188900C9584B4B8900CB58D218484B3C
S31520000CD09A64474B5A6C464BF9698800B9694118A2
S31520000CE08900C958434B8900CB58D218404B5A64C7
S31520000CF0BB690133BB61BB69032B9FDDFB69013BEC
S31520000D00FB61FB69002B96DCDDE003237B6165E05C
S31520000D1000233B615CE0364B3A6991007A698A1878
S31520000D209200D358002B50D0314B3A6991007A6902
S31520000D308A189200D2587B69591E2D4B386980003B
S31520000D4041188900CB589A423FD1294B01221A6477
S31520000D50274B1B6C264A3969880079694118890016
S31520000D608A58D118224B3A6990007A6982189200E3
S31520000D70D1501F4BDB6C5A1E1D4BDA647B695A1E01
S31520000D801B4B396989008A1892000021D150184BD3
S31520000D909A6C174B39698800796941188900C958B6
S31520000DA0144B8900CB58D218114B9A64104B5A6CAD
S31520000DB00F4B39698800796941188900C9580D4B4C
S31520000DC08900CB58D2180A4B5A643B6901333B61E0
S31520000DD03B69032B9FDD7B69013B7B617B69002B94
S31520000DE096DC70E00023FB6069E00023BB6060E0D6
S31520000DF0301B002054230020354BBA689100FA6836
S31520000E008A189200D358002B50D0314BBA689100E3
S31520000E10FA688A189200D258FB68591C2C4BB8687D
S31520000E20800041188900CB589A423FD1284B012295
S31520000E301A64274B1B6C264AB9688800F968411842
S31520000E4089008A58D118224BBA689000FA6882180D
S31520000E509200D1501E4BDB6C5A1E1D4BDA64FB6888
S31520000E605A1C1B4BB96889008A1892000021D15060
S31520000E70174B9A6C164BB9688800F9684118890097
S31520000E80C958144B8900CB58D218114B9A64104B71
S31520000E905A6C0F4BB9688800F96841188900C958FF
S31520000EA00C4B8900CB58D218094B5A64BB680133C6
S31520000EB0BB60BB68032B9FDDFB680133FB60FB68CF
S31520000EC0022B92DDC046C046BD460AB080BDC04654
S31520000ED0301B00205423002080B584B000AF0123AE
S31520000EE05B42FB600023BB6050E000237B6047E051
S31520000EF02A4BBA6891007A688A189200D258284BF1
S31520000F009200D25880231B019A4201D1012341E04D
S31520000F10224BBA6891007A688A189200D358002B1F
S31520000F2029D0BB680133032B10DC1C4BBA68910017
S31520000F307A688A189200D258BB68591C174B8800C9
S31520000F40796841188900CB589A4214D07B680133BE
S31520000F50032B12DC114BBA6891007A688A1892002A
S31520000F60D2587B68591C0D4BB868800041188900FF
S31520000F70CB589A4201D10023FB607B6801337B600A
S31520000F807B68032BB4DDBB680133BB60BB68032BD6
S31520000F90ABDDFB681800BD4604B080BD301B0020C9
S31520000FA05423002080B582B000AF78600B4B00221E
S31520000FB01A647B681800FFF775FC7B681800FFF73A
S31520000FC0B5FD7B681800FFF76DFC00F005F9034BB3
S31520000FD01B6C1800BD4602B080BDC046301B0020E9
S31520000FE080B582B000AF00237B6013E000233B6016
S31520000FF00AE00D4B7A6891003A688A18920000211F
S31520001000D1503B6801333B603B68032BF1DD7B68A5
S3152000101001337B607B68032BE8DD00F0DDF8C046FA
S31520001020BD4602B080BDC046301B002080B582B0D0
S3152000103000AF00237B6017E000233B600EE00E4BE1
S315200010407A6891003A688A189200D25839687B6883
S31520001050180000F013F83B6801333B603B68032B14
S31520001060EDDD7B6801337B607B68032BE4DDC046C6
S31520001070BD4602B080BDC046301B002080B58EB074
S3152000108000AFF860B9607A60FB681B017B62BB68C1
S315200010901B013B627B6A20337B621023FB6110239A
S315200010A0BB617B68180000F054F803007B61FB6984
S315200010B00722134006D1FB69002B00DA0733DB1029
S315200010C0BB6202E0FB690133BB6200237B6338E02D
S315200010D000233B632EE07B6BBA6A5A433B6BD318E3
S315200010E01A007B699A181323FB1812781A700023AA
S315200010F0FB6219E01323FB181A78FB6A1A411300C6
S31520001100012213400DD03B6BDA00FB6AD2187B6AB2
S31520001110D318581C7A6B3B6AD31801331900FFF792
S3152000112061FAFB6A0133FB62FB6A072BE2DD3B6B4C
S3152000113001333B633A6BBB6A9A42CCDB7B6B013350
S315200011407B637A6BBB699A42C2DBC046BD460EB052
S3152000115080BD80B582B000AF78607B680B2B1DD830
S315200011607B689A000F4BD3181B689F460E4B15E0E1
S315200011700E4B13E00E4B11E00E4B0FE00E4B0DE025
S315200011800E4B0BE00E4B09E00E4B07E00E4B05E035
S315200011900E4B03E00E4B01E00E4BFFE71800BD4659
S315200011A002B080BD84230020881F0020A81F0020B5
S315200011B0C81F0020E81F002008200020282000202B
S315200011C0482000206820002088200020A820002019
S315200011D0C8200020E820002080B584B000AF294B2D
S315200011E0DB6C0F2B4ADC00F0CBF8264BDB6C102295
S315200011F0D31A190000F0AAFB0B003B600023FB600A
S315200012000023BB6036E000237B602DE01D4BBA68CF
S3152000121091007A688A189200D358002B20D1FA6858
S315200012203B689A4218D100F0ABF803000A21180057
S3152000123000F08CFB0B1E01D0012300E00223114A93
S31520001240B96888007968411889008B500D4BDB6C92
S315200012505A1C0C4BDA6412E0FB680133FB6000E099
S31520001260C0467B6801337B607B68032BCEDDBB6881
S315200012700133BB60BB68032BC5DD00E0C046BD461D
S3152000128004B080BD301B002080B58AB000AF00239B
S315200012907B6100233B617B6920337B614023FB60BC
S315200012A04023BB60284B7B60FB680722134006D196
S315200012B0FB68002B00DA0733DB10BB6102E0FB681A
S315200012C00133BB6100237B6236E000233B622CE0C6
S315200012D07B6ABA695A433B6AD3181A007B689A1804
S315200012E0FB1C12781A700023FB6118E0FB1C1A788D
S315200012F0FB691A411300012213400DD03B6ADA0024
S31520001300FB69D2187B69D318581C7A6A3B69D318B3
S3152000131001331900FFF766F9FB690133FB61FB69AD
S31520001320072BE3DD3B6A01333B623A6ABB699A428B
S31520001330CEDB7B6A01337B627A6ABB689A42C4DB66
S31520001340C046BD460AB080BD0821002080B582B0C7
S3152000135000AF054B1B6C7B60034B00221A647B6835
S315200013601800BD4602B080BD301B002080B500AFFE
S31520001370024B5B6C1800BD4680BDC046301B00206A
S3152000138080B500AF154B1B889B089AB2134B1B8860
S3152000139053409AB2114B1B88DB089BB253409AB23A
S315200013A00E4B1B885B099BB253409BB21A0001234C
S315200013B01A400B4B1A60094B1B885B089AB2084BE4
S315200013C01B689BB2DB039BB213439AB2034B1A8072
S315200013D0024B1B881800BD4680BDC046841B0020DA
S315200013E0801B002080B584B000AF78603960FFF79D
S315200013F0C7FF0300FB607B68FA68D318FB603A6876
S31520001400FB681100180000F0A1FA0B00FB60FB68D6
S315200014101800BD4604B080BD80B582B000AF020082
S31520001420BB1D1A80034BBA1D12881A80C046BD46C2
S3152000143002B080BD841B002080B500AFC04600F0FE
S31520001440C8F803001A0080231340802BF7D01420FD
S31520001450FFF786F8382000F07BF86420FFF780F845
S31520001460C04600F0B6F803001A0080231340802BF4
S31520001470F7D01420FFF774F80E2000F069F86420E6
S31520001480FFF76EF8C04600F0A4F803001A00802388
S315200014901340802BF7D01420FFF762F80E2000F0BF
S315200014A057F86420FFF75CF8024B034A1A60C046DF
S315200014B0BD4680BD001002405555555580B584B0B7
S315200014C000AF0200FB1D1A700C4A0F23FB1812787E
S315200014D01A70FA1D0F23FB1812781B781343DAB201
S315200014E00F23FB1804210A431A70044A0F23FB1802
S315200014F01B781370C046BD4604B080BD1410024050
S3152000150080B584B000AF0200FB1D1A700F4A0F236E
S31520001510FB1812781A70FB1D1B785BB2DB435BB29B
S315200015200F22BA18127852B213405BB20422134328
S315200015305AB20F23FB181A70044A0F23FB181B7884
S315200015401370C046BD4604B080BDC046141002408C
S3152000155080B582B000AF0200FB1D1A700120FFF794
S31520001560CFFF0220FFF7CCFFFB1D1B78180000F0F1
S3152000157085F8C046BD4602B080BD80B582B000AFBA
S315200015800200FB1D1A700120FFF798FF0220FFF7CB
S31520001590B7FFFB1D1B78180000F070F8C046BD464B
S315200015A002B080BD80B500AFC04600F012F803003F
S315200015B01A0080231340802BF7D05020FEF7D0FF4F
S315200015C00120FFF7C5FFC820FEF7E0FFC046BD4655
S315200015D080BD90B583B000AF114B114A126812043A
S315200015E0120C1A600120FFF78BFF0220FFF766FF1F
S315200015F0FC1D00F05BF803002370094B084A1268B3
S315200016001204120C1A60064B054A126805490A4351
S315200016101A60FB1D1B781800BD4603B090BDC0465E
S31520001620001002400000555590B583B000AF114B15
S31520001630104A12681204120C1A600120FFF73EFFAE
S315200016400220FFF73BFFFC1D00F030F8030023705B
S31520001650084B084A12681204120C1A60054B054AF8
S31520001660126805490A431A60FB1D1B781800BD46FF
S3152000167003B090BD001002400000555580B582B0E1
S3152000168000AF0200FB1D1A704020FFF717FF064A25
S31520001690FB1D1B781370FEF739FF4020FFF730FF44
S315200016A0C046BD4602B080BD1510024080B582B04E
S315200016B000AF4020FFF702FFFEF728FFFEF726FFC8
S315200016C0064AFB1D12781A704020FFF719FFFB1DF2
S315200016D01B781800BD4602B080BDC04611100240DE
S315200016E080B582B000AF0200FB1D1A70C046FFF71E
S315200016F070FF03001A0080231340802BF7D00820A8
S31520001700FEF72EFFFB1D1B781800FFF736FF322051
S31520001710FEF726FFC046BD4602B080BD80B582B02A
S3152000172000AF7860FFF73EFF0121012000F010F89E
S3152000173006E07B685A1C7A601B781800FFF7D0FFFA
S315200017407B681B78002BF4D1C046BD4602B080BD15
S3152000175080B584B000AF0200FB1D1A70BB1D0A1CA9
S315200017601A700F23FB18FA1D1278013A1A70BB1D46
S315200017701B78022B06D10F23FB180F22BA181278DA
S3152000178040321A700F23FB181B78802252421343D3
S31520001790DBB21800FFF7DCFEC046BD4604B080BDB4
S315200017A080B584B000AF786002210120FFF7D0FF1A
S315200017B07B68002B03D13020FFF792FF3AE01F4BC6
S315200017C0FB6006E0FB680A21180000F0C3F803005E
S315200017D0FB60F968786800F0BDF803001A000B2357
S315200017E0FB181A700B23FB181B78002BEAD01EE07F
S315200017F0F968786800F0AEF803001A000B23FB188E
S315200018001A700B23FB181B783033DBB21800FFF756
S3152000181067FF7B68F968180000F082F90B007B608F
S31520001820FB680A21180000F095F80300FB60FB68AE
S31520001830002BDDD1BD4604B080BDC0468096980001
S31520001840002243088B4274D303098B425FD3030AD9
S315200018508B4244D3030B8B4228D3030C8B420DD3EC
S31520001860FF22090212BA030C8B4202D3121209027A
S3152000187065D0030B8B4219D300E0090AC30B8B42B8
S3152000188001D3CB03C01A5241830B8B4201D38B0366
S31520001890C01A5241430B8B4201D34B03C01A52410B
S315200018A0030B8B4201D30B03C01A5241C30A8B424E
S315200018B001D3CB02C01A5241830A8B4201D38B0239
S315200018C0C01A5241430A8B4201D34B02C01A5241DD
S315200018D0030A8B4201D30B02C01A5241CDD2C3094F
S315200018E08B4201D3CB01C01A524183098B4201D3CB
S315200018F08B01C01A524143098B4201D34B01C01AB6
S31520001900524103098B4201D30B01C01A5241C3082D
S315200019108B4201D3CB00C01A524183088B4201D39C
S315200019208B00C01A524143088B4201D34B00C01A88
S315200019305241411A00D20146524110467047FFE7F4
S3152000194001B5002000F0F0F802BDC0460029F7D00E
S3152000195076E7704703460B437FD4002243088B4229
S3152000196074D303098B425FD3030A8B4244D3030B00
S315200019708B4228D3030C8B420DD3FF22090212BAC5
S31520001980030C8B4202D31212090265D0030B8B4241
S3152000199019D300E0090AC30B8B4201D3CB03C01A2B
S315200019A05241830B8B4201D38B03C01A5241430B06
S315200019B08B4201D34B03C01A5241030B8B4201D3F6
S315200019C00B03C01A5241C30A8B4201D3CB02C01A61
S315200019D05241830A8B4201D38B02C01A5241430AD9
S315200019E08B4201D34B02C01A5241030A8B4201D3C8
S315200019F00B02C01A5241CDD2C3098B4201D3CB016F
S31520001A00C01A524183098B4201D38B01C01A52411D
S31520001A1043098B4201D34B01C01A524103098B4221
S31520001A2001D30B01C01A5241C3088B4201D3CB000C
S31520001A30C01A524183088B4201D38B00C01A5241EF
S31520001A4043088B4201D34B00C01A5241411A00D29F
S31520001A5001465241104670475DE0CA0F00D0494208
S31520001A60031000D34042534000229C4603098B4278
S31520001A702DD3030A8B4212D3FC22890112BA030A00
S31520001A808B420CD3890192118B4208D38901921182
S31520001A908B4204D389013AD0921100E08909C30907
S31520001AA08B4201D3CB01C01A524183098B4201D309
S31520001AB08B01C01A524143098B4201D34B01C01AF4
S31520001AC0524103098B4201D30B01C01A5241C3086C
S31520001AD08B4201D3CB00C01A524183088B4201D3DB
S31520001AE08B00C01A5241D9D243088B4201D34B00F6
S31520001AF0C01A5241411A00D20146634652415B1038
S31520001B00104601D34042002B00D549427047634618
S31520001B105B1000D3404201B5002000F005F802BD5D
S31520001B200029F8D016E770477047C046000000002D
S31520001B30000000000000000000000000000000007F
S31520001B40000000000000000000000000000000006F
S31520001B50000000000000000000000000000000005F
S31520001B60000000000000000000000000000000004F
S31520001F800000000000000000FFFF018001800180AA
S31520001F900180018001800180018001800180018013
S31520001FA0018001800180FFFFFFFF01800180018009
S31520001FB001800180018001800180019E0190019EA7
S31520001FC00182019E0180FFFFFFFF018001800180C9
S31520001FD00180018001800180018001920192019E91
S31520001FE0019001900180FFFFFFFF018001800180A9
S31520001FF001809DBC51A5099805A41DBC01800180C6
S31520002000018001800180FFFFFFFF018001800180A8
S3152000201001800180018001800180419E4182419E94
S315200020204192419E0180FFFFFFFF018001800180D8
S3152000203001800180018001800180799E4190719EFE
S315200020404182799E0180FFFFFFFF01800180018090
S315200020500180018001800180018079920992799E18
S31520002060499079900180FFFFFFFF01800190019048
S3152000207001900190019001800180799E4192799E84
S315200020800992799E0180FFFFFFFF0180019E01904A
S31520002090019E0182019E01800180799E0982799E9E
S315200020A04192799E0180FFFFFFFF0180019E018200
S315200020B0019E0190019E01800180419E4190419E9A
S315200020C04182419E0180FFFFFFFF0180419E419298
S315200020D041924192419E0180018079924192799E5E
S315200020E0099079900180FFFFFFFF0180799E419240
S315200020F079920992799E01800180499E4992799E22
S315200021004192419E0180FFFF000000000000000078
S315200021100000000000000000000000000000000099
S315200021200000000000000000000000000000000089
S315200021300000000000000000000000000000000079
S315200021400000000000000000000000000000000069
S315200021500000000000000000000000000000000059
S315200021600000000000000000000000000000000049
S315200021700000000000000000000000000000000039
S31520002180803FC0031EF0F80FE07FC0031EF0F80F5B
S31520002190F040E0073EF83800700060063EF8380050
S315200021A03800700E6EEC38003800700E6EECF807B2
S315200021B038F8300CEEEEF80738F8381CCEE6380042
S315200021C038E0F81FCEE7380070E0FC3F8EE3380099
S315200021D0F0E01C388EE33800E0FF1C380EE0F80FE4
S315200021E0803F0E700EE0F80F000000000000000097
S315200021F000000000000000000000000000000000B9
S3152000220000000000000000000000000000000000A8
S315200022100000000000000000000000000000000098
S315200022200000000000000000003E38C0F98F7F004B
S3152000223080FF70E0F88FFF00C0E371E03880C301B3
S31520002240C0C1F1F03880C301E080E3703880C3015B
S31520002250E080E370F887E301E080E379F887FF0008
S31520002260E080C3393880FF00E080C3393880E3003E
S31520002270C0C1811F3880C301C0E3811F3880C303DA
S3152000228080FF801FF88F8303003E000FF88F83079F
S315200022900000000000000000000000000000000018
S315200022A00000000000000000000000000000000008
S315200022B000000000000000000000000000000000F8
S315200022C000000000000000000000000000000000E8
S315200022D000000000000000000000000000000000D8
S315200022E000000000000000000000000000000000C8
S315200022F000000000000000000000000000000000B8
S31520002300000000000000000044726177696E6700DB
S31520002310446F6E6500000000596F7520776F6E213F
S3152000232000000000596F75206C6F73742100000047
S31520002330CE070020AE070020B6070020BE070020EB
S31520002340C60700200102030A0405060B0708090C2C
S315200023500E000F0D00000000020000000400000027
S3152000236008000000100000002000000040000000CF
S3152000237080000000000100000002000000040000B0
S31520002380000800006C11002070110020741100203C
S31520002390781100207C11002080110020841100205B
S315200023A0881100208C11002090110020941100200B
S309200023B0981100203A
S70520000000DA
